{
  "contractName": "SupplyChain",
  "abi": [
    {
      "inputs": [],
      "stateMutability": "nonpayable",
      "type": "constructor"
    },
    {
      "anonymous": false,
      "inputs": [
        {
          "indexed": false,
          "internalType": "string",
          "name": "",
          "type": "string"
        }
      ],
      "name": "AllowedThroughCustoms",
      "type": "event"
    },
    {
      "anonymous": false,
      "inputs": [
        {
          "indexed": false,
          "internalType": "string",
          "name": "",
          "type": "string"
        }
      ],
      "name": "DeniedAtCustoms",
      "type": "event"
    },
    {
      "inputs": [
        {
          "internalType": "uint256",
          "name": "",
          "type": "uint256"
        }
      ],
      "name": "Cargo",
      "outputs": [
        {
          "internalType": "uint256",
          "name": "cargoID",
          "type": "uint256"
        },
        {
          "internalType": "uint256",
          "name": "cargoPrice",
          "type": "uint256"
        },
        {
          "internalType": "string",
          "name": "cargoDetails",
          "type": "string"
        },
        {
          "internalType": "string",
          "name": "cargoLocation",
          "type": "string"
        },
        {
          "internalType": "string",
          "name": "buyer",
          "type": "string"
        },
        {
          "internalType": "string",
          "name": "cargoState",
          "type": "string"
        }
      ],
      "stateMutability": "view",
      "type": "function"
    },
    {
      "inputs": [
        {
          "internalType": "uint256",
          "name": "cargoPrice",
          "type": "uint256"
        },
        {
          "internalType": "string",
          "name": "cargoDetails",
          "type": "string"
        },
        {
          "internalType": "string",
          "name": "cargoLocation",
          "type": "string"
        },
        {
          "internalType": "string",
          "name": "buyer",
          "type": "string"
        }
      ],
      "name": "initializeCargo",
      "outputs": [],
      "stateMutability": "nonpayable",
      "type": "function"
    },
    {
      "inputs": [
        {
          "internalType": "uint256",
          "name": "_id",
          "type": "uint256"
        },
        {
          "internalType": "string",
          "name": "_temp",
          "type": "string"
        }
      ],
      "name": "cargoBought",
      "outputs": [],
      "stateMutability": "nonpayable",
      "type": "function"
    },
    {
      "inputs": [
        {
          "internalType": "uint256",
          "name": "_id",
          "type": "uint256"
        },
        {
          "internalType": "string",
          "name": "_temp",
          "type": "string"
        }
      ],
      "name": "customsCheck",
      "outputs": [
        {
          "internalType": "string",
          "name": "",
          "type": "string"
        }
      ],
      "stateMutability": "nonpayable",
      "type": "function"
    },
    {
      "inputs": [
        {
          "internalType": "uint256",
          "name": "_id",
          "type": "uint256"
        }
      ],
      "name": "cargoShipping",
      "outputs": [],
      "stateMutability": "nonpayable",
      "type": "function"
    },
    {
      "inputs": [
        {
          "internalType": "uint256",
          "name": "_id",
          "type": "uint256"
        }
      ],
      "name": "cargoReceieved",
      "outputs": [],
      "stateMutability": "nonpayable",
      "type": "function"
    },
    {
      "inputs": [
        {
          "internalType": "uint256",
          "name": "_temp",
          "type": "uint256"
        }
      ],
      "name": "viewCargo",
      "outputs": [
        {
          "internalType": "uint256",
          "name": "",
          "type": "uint256"
        },
        {
          "internalType": "uint256",
          "name": "",
          "type": "uint256"
        },
        {
          "internalType": "string",
          "name": "",
          "type": "string"
        },
        {
          "internalType": "string",
          "name": "",
          "type": "string"
        },
        {
          "internalType": "string",
          "name": "",
          "type": "string"
        },
        {
          "internalType": "string",
          "name": "",
          "type": "string"
        }
      ],
      "stateMutability": "view",
      "type": "function"
    }
  ],
  "bytecode": "0x608060405234801561001057600080fd5b50336000806101000a81548173ffffffffffffffffffffffffffffffffffffffff021916908373ffffffffffffffffffffffffffffffffffffffff160217905550611277806100606000396000f3fe608060405234801561001057600080fd5b506004361061007d5760003560e01c80637020f46e1161005b5780637020f46e14610108578063b716f75d14610138578063d22a18de14610154578063e9181cd8146101705761007d565b806310f9218114610082578063207a91bc1461009e5780632655e760146100d3575b600080fd5b61009c60048036038101906100979190610d3f565b61018c565b005b6100b860048036038101906100b39190610d9b565b610239565b6040516100ca96959493929190610e5f565b60405180910390f35b6100ed60048036038101906100e89190610d9b565b6104a5565b6040516100ff96959493929190610e5f565b60405180910390f35b610122600480360381019061011d9190610d3f565b6107d3565b60405161012f9190610edc565b60405180910390f35b610152600480360381019061014d9190610d9b565b6108f5565b005b61016e60048036038101906101699190610efe565b610967565b005b61018a60048036038101906101859190610d9b565b610a9a565b005b80600183815481106101a1576101a0610fb9565b5b906000526020600020906006020160040190805190602001906101c5929190610b0c565b506040518060400160405280600d81526020017f4f72646572204372656174656400000000000000000000000000000000000000815250600183815481106102105761020f610fb9565b5b90600052602060002090600602016005019080519060200190610234929190610b0c565b505050565b6001818154811061024957600080fd5b906000526020600020906006020160009150905080600001549080600101549080600201805461027890611017565b80601f01602080910402602001604051908101604052809291908181526020018280546102a490611017565b80156102f15780601f106102c6576101008083540402835291602001916102f1565b820191906000526020600020905b8154815290600101906020018083116102d457829003601f168201915b50505050509080600301805461030690611017565b80601f016020809104026020016040519081016040528092919081815260200182805461033290611017565b801561037f5780601f106103545761010080835404028352916020019161037f565b820191906000526020600020905b81548152906001019060200180831161036257829003601f168201915b50505050509080600401805461039490611017565b80601f01602080910402602001604051908101604052809291908181526020018280546103c090611017565b801561040d5780601f106103e25761010080835404028352916020019161040d565b820191906000526020600020905b8154815290600101906020018083116103f057829003601f168201915b50505050509080600501805461042290611017565b80601f016020809104026020016040519081016040528092919081815260200182805461044e90611017565b801561049b5780601f106104705761010080835404028352916020019161049b565b820191906000526020600020905b81548152906001019060200180831161047e57829003601f168201915b5050505050905086565b600080606080606080600187815481106104c2576104c1610fb9565b5b906000526020600020906006020160000154600188815481106104e8576104e7610fb9565b5b9060005260206000209060060201600101546001898154811061050e5761050d610fb9565b5b906000526020600020906006020160020160018a8154811061053357610532610fb9565b5b906000526020600020906006020160030160018b8154811061055857610557610fb9565b5b906000526020600020906006020160040160018c8154811061057d5761057c610fb9565b5b906000526020600020906006020160050183805461059a90611017565b80601f01602080910402602001604051908101604052809291908181526020018280546105c690611017565b80156106135780601f106105e857610100808354040283529160200191610613565b820191906000526020600020905b8154815290600101906020018083116105f657829003601f168201915b5050505050935082805461062690611017565b80601f016020809104026020016040519081016040528092919081815260200182805461065290611017565b801561069f5780601f106106745761010080835404028352916020019161069f565b820191906000526020600020905b81548152906001019060200180831161068257829003601f168201915b505050505092508180546106b290611017565b80601f01602080910402602001604051908101604052809291908181526020018280546106de90611017565b801561072b5780601f106107005761010080835404028352916020019161072b565b820191906000526020600020905b81548152906001019060200180831161070e57829003601f168201915b5050505050915080805461073e90611017565b80601f016020809104026020016040519081016040528092919081815260200182805461076a90611017565b80156107b75780601f1061078c576101008083540402835291602001916107b7565b820191906000526020600020905b81548152906001019060200180831161079a57829003601f168201915b5050505050905095509550955095509550955091939550919395565b60607f9a2c5f9025f1f0333863704310875ae81a574171bed5b047cfc0f50e347f630e826040516020016108079190611085565b604051602081830303815290604052805190602001201415610881577fe301f38ee81a4ce08b4dccc55dc3f1fa7f528817b44edb46a4ff5e1bee3405d16040516108509061110e565b60405180910390a1610861836108f5565b6040518060600160405280602f8152602001611213602f913990506108ef565b7f81e7f20134d602a0d437b65908c8805181ee4a026f9273f8f8b5320e38a095d66040516108ae9061117a565b60405180910390a16040518060400160405280601b81526020017f4f72646572207761732064656e69656420627920637573746f6d73000000000081525090505b92915050565b6040518060400160405280601881526020017f4f726465722063757272656e746c79207368697070696e6700000000000000008152506001828154811061093f5761093e610fb9565b5b90600052602060002090600602016005019080519060200190610963929190610b0c565b5050565b6000806040518060400160405280600b81526020017f576974682053656c6c6572000000000000000000000000000000000000000000815250905060016040518060c0016040528084815260200188815260200187815260200186815260200185815260200183815250908060018154018082558091505060019003906000526020600020906006020160009091909190915060008201518160000155602082015181600101556040820151816002019080519060200190610a2a929190610b0c565b506060820151816003019080519060200190610a47929190610b0c565b506080820151816004019080519060200190610a64929190610b0c565b5060a0820151816005019080519060200190610a81929190610b0c565b5050508180610a8f906111c9565b925050505050505050565b6040518060400160405280601281526020017f427579657220686173207265636569766564000000000000000000000000000081525060018281548110610ae457610ae3610fb9565b5b90600052602060002090600602016005019080519060200190610b08929190610b0c565b5050565b828054610b1890611017565b90600052602060002090601f016020900481019282610b3a5760008555610b81565b82601f10610b5357805160ff1916838001178555610b81565b82800160010185558215610b81579182015b82811115610b80578251825591602001919060010190610b65565b5b509050610b8e9190610b92565b5090565b5b80821115610bab576000816000905550600101610b93565b5090565b6000604051905090565b600080fd5b600080fd5b6000819050919050565b610bd681610bc3565b8114610be157600080fd5b50565b600081359050610bf381610bcd565b92915050565b600080fd5b600080fd5b6000601f19601f8301169050919050565b7f4e487b7100000000000000000000000000000000000000000000000000000000600052604160045260246000fd5b610c4c82610c03565b810181811067ffffffffffffffff82111715610c6b57610c6a610c14565b5b80604052505050565b6000610c7e610baf565b9050610c8a8282610c43565b919050565b600067ffffffffffffffff821115610caa57610ca9610c14565b5b610cb382610c03565b9050602081019050919050565b82818337600083830152505050565b6000610ce2610cdd84610c8f565b610c74565b905082815260208101848484011115610cfe57610cfd610bfe565b5b610d09848285610cc0565b509392505050565b600082601f830112610d2657610d25610bf9565b5b8135610d36848260208601610ccf565b91505092915050565b60008060408385031215610d5657610d55610bb9565b5b6000610d6485828601610be4565b925050602083013567ffffffffffffffff811115610d8557610d84610bbe565b5b610d9185828601610d11565b9150509250929050565b600060208284031215610db157610db0610bb9565b5b6000610dbf84828501610be4565b91505092915050565b610dd181610bc3565b82525050565b600081519050919050565b600082825260208201905092915050565b60005b83811015610e11578082015181840152602081019050610df6565b83811115610e20576000848401525b50505050565b6000610e3182610dd7565b610e3b8185610de2565b9350610e4b818560208601610df3565b610e5481610c03565b840191505092915050565b600060c082019050610e746000830189610dc8565b610e816020830188610dc8565b8181036040830152610e938187610e26565b90508181036060830152610ea78186610e26565b90508181036080830152610ebb8185610e26565b905081810360a0830152610ecf8184610e26565b9050979650505050505050565b60006020820190508181036000830152610ef68184610e26565b905092915050565b60008060008060808587031215610f1857610f17610bb9565b5b6000610f2687828801610be4565b945050602085013567ffffffffffffffff811115610f4757610f46610bbe565b5b610f5387828801610d11565b935050604085013567ffffffffffffffff811115610f7457610f73610bbe565b5b610f8087828801610d11565b925050606085013567ffffffffffffffff811115610fa157610fa0610bbe565b5b610fad87828801610d11565b91505092959194509250565b7f4e487b7100000000000000000000000000000000000000000000000000000000600052603260045260246000fd5b7f4e487b7100000000000000000000000000000000000000000000000000000000600052602260045260246000fd5b6000600282049050600182168061102f57607f821691505b6020821081141561104357611042610fe8565b5b50919050565b600081905092915050565b600061105f82610dd7565b6110698185611049565b9350611079818560208601610df3565b80840191505092915050565b60006110918284611054565b915081905092915050565b7f437573746f6d7320617070726f7665642c20796f752063616e2070726f63656560008201527f642077697468207368697070696e670000000000000000000000000000000000602082015250565b60006110f8602f83610de2565b91506111038261109c565b604082019050919050565b60006020820190508181036000830152611127816110eb565b9050919050565b7f4f72646572207761732064656e69656420627920637573746f6d730000000000600082015250565b6000611164601b83610de2565b915061116f8261112e565b602082019050919050565b6000602082019050818103600083015261119381611157565b9050919050565b7f4e487b7100000000000000000000000000000000000000000000000000000000600052601160045260246000fd5b60006111d482610bc3565b91507fffffffffffffffffffffffffffffffffffffffffffffffffffffffffffffffff8214156112075761120661119a565b5b60018201905091905056fe437573746f6d7320617070726f7665642c20796f752063616e2070726f636565642077697468207368697070696e67a264697066735822122080dd483e912fd3fdf7a230b4d5a041b76214cabab935b698d22e73bd13582ad764736f6c634300080a0033",
  "immutableReferences": {},
  "source": "// SPDX-License-Identifier: MIT\r\npragma solidity >=0.5.0;\r\n\r\ncontract SupplyChain {\r\n\r\n   struct cargo{\r\n    uint256 cargoID;\r\n    uint256 cargoPrice;\r\n    string cargoDetails;\r\n    string cargoLocation;\r\n\tstring buyer;\r\n\tstring cargoState;\r\n    }\r\n\r\n    address owner;\r\n    cargo[] public Cargo;\r\n\r\n    event DeniedAtCustoms(string);\r\n\tevent AllowedThroughCustoms(string);\r\n\r\n\t//for future use\r\n    constructor() public {\r\n        owner = msg.sender;\r\n    }\r\n\r\n\t//initialize cargo, buyer can be left as N/a yet\r\n    function initializeCargo(\r\n        uint256 cargoPrice,\r\n        string memory cargoDetails,\r\n        string memory cargoLocation,\r\n\t\tstring memory buyer\r\n    ) public {\r\n\t\tuint cargoID = 0;\r\n\t\tstring memory cargoState = \"With Seller\";\r\n      \tCargo.push(cargo(cargoID,cargoPrice,cargoDetails,cargoLocation,buyer,cargoState));\r\n\t \tcargoID++;\r\n    }\r\n\r\n\t//function that allows us to put the buyer name\r\n\tfunction cargoBought(uint256 _id, string memory _temp) public {\r\n\t\tCargo[_id].buyer = _temp;\r\n\t\tCargo[_id].cargoState = \"Order Created\";\r\n\t}\r\n\r\n\t//meant for customs check, if approved auto ship the cargo\r\n\t//needs to have approval of several members before approve\r\n\tfunction customsCheck(uint256 _id, string memory _temp) public returns(string memory){\r\n\t\tif (keccak256(abi.encodePacked((_temp))) == keccak256(\"Y\")){\r\n\t\t\temit AllowedThroughCustoms(\"Customs approved, you can proceed with shipping\");//for future use\r\n\t\t\tcargoShipping(_id);\r\n\t\t\treturn(\"Customs approved, you can proceed with shipping\");\r\n\t\t}\r\n\t\telse {\r\n\t\t\temit DeniedAtCustoms(\"Order was denied by customs\");//for future use\r\n\t\t\treturn(\"Order was denied by customs\");//for testing purposes now\r\n\t\t}\r\n\t}\r\n\r\n\t//function that states the cargo is currently shipping\r\n\tfunction cargoShipping(uint256 _id) public {\r\n\t\tCargo[_id].cargoState = \"Order currently shipping\";\r\n\t}\r\n\r\n\t//function that states buyer has received\r\n\t//an if else statement needs to be added so this state can only be achieved when cargo location and buyer address matches\r\n\tfunction cargoReceieved(uint256 _id) public {\r\n\t\tCargo[_id].cargoState = \"Buyer has received\";\r\n\t}\r\n\r\n\t//meant for testing if we can see the cargo\r\n\tfunction viewCargo(uint256 _temp) public view \r\n\treturns(uint256, uint256, string memory, string memory, string memory, string memory){\r\n\treturn(Cargo[_temp].cargoID, Cargo[_temp].cargoPrice, Cargo[_temp].cargoDetails,\r\n\tCargo[_temp].cargoLocation, Cargo[_temp].buyer, Cargo[_temp].cargoState);\r\n\t}\r\n\r\n    }",
  "sourcePath": "C:\\Users\\micky\\Documents\\GitHub\\Custom Layout Assignment\\CSCI4312-Blockchain-Project\\contracts\\SupplyChain.sol",
  "compiler": {
    "name": "solc",
    "version": "0.8.10+commit.fc410830.Emscripten.clang"
  },
  "schemaVersion": "3.4.4",
  "updatedAt": "2022-01-17T12:02:47.185Z",
  "devdoc": {
    "kind": "dev",
    "methods": {},
    "version": 1
  },
  "userdoc": {
    "kind": "user",
    "methods": {},
    "version": 1
  }
}